:020000040800F2
:10000000E00A0020C11D0008011E0008031E0008B0
:10001000071E00080B1E00080F1E0008000000004D
:10002000000000000000000000000000131E000897
:10003000151E000800000000171E0008191E000809
:10004000DB1D0008DB1D0008DB1D0008DB1D0008B0
:10005000DB1D0008DB1D0008DB1D0008DB1D0008A0
:10006000DB1D0008DB1D0008DB1D0008DB1D000890
:10007000DB1D0008DB1D0008F13B0008DB1D00084C
:10008000DB1D0008DB1D0008DB1D0008DB1D000870
:1000900027370008DB1D0008DB1D0008DB1D0008FA
:1000A000DB1D0008DB1D0008DB1D0008DB1D000850
:1000B000DB1D000881350008DB1D0008DB1D000882
:1000C000DB1D0008DB1D0008DB1D0008DB1D000830
:1000D000DB1D0008DB1D0008DB1D0008213C0008BB
:1000E000DB1D0008DB1D0008DB1D0008DB1D000810
:1000F000DB1D0008DB1D0008DB1D0008DB1D000800
:10010000DB1D0008DB1D0008DB1D0008DB1D0008EF
:10011000DB1D0008DB1D0008DB1D0008DB1D0008DF
:10012000DB1D0008DB1D0008DB1D0008DB1D0008CF
:10013000DB1D0008DB1D0008DB1D0008DB1D0008BF
:10014000CB380008DB1D0008DB1D0008DB1D0008A4
:10015000DB1D0008DB1D0008DB1D0008DB1D00089F
:10016000DB1D0008DB1D0008DB1D0008DB1D00088F
:10017000DB1D0008DB1D0008DB1D0008DB1D00087F
:10018000DB1D0008DB1D000800F002F800F03CF861
:100190000AA090E8000C82448344AAF10107DA45E2
:1001A00001D100F031F8AFF2090EBAE80F0013F0F8
:1001B000010F18BFFB1A43F0010318472C61000020
:1001C0004C610000103A24BF78C878C1FAD85207B1
:1001D00024BF30C830C144BF04680C6070470000C1
:1001E0000023002400250026103A28BF78C1FBD840
:1001F000520728BF30C148BF0B6070471FB505F0DC
:100200009FFE1FBD10B510BD04F06AFE1146FFF73A
:10021000F5FF00F008F804F088FE03B4FFF7F2FFE2
:1002200003BC00F005F803F0E5F900BFFEE70000AD
:10023000014600BF704700BF2D4A128802F04002FD
:10024000002AF9D0C2B22A4B9A80704710B588B004
:1002500004460121084600F0E3FB0121102000F0D4
:1002600039FC07220921234800F0C7F907220A2197
:10027000204800F0C2F94FF4C060069002208DF8CB
:100280001C008DF81D0000208DF81E0001208DF847
:100290001F0006A9174800F025F902940020ADF8C8
:1002A0000C00ADF80E00ADF81000ADF814000C20F5
:1002B000ADF8120002A90E4801F0BFFB01210C4865
:1002C00001F043FC012240F22551094801F0F3FC02
:1002D00025208DF8040003208DF805008DF8060018
:1002E00001208DF8070001A800F00BF808B010BD40
:1002F000001001400000024032490143324A1160BF
:10030000704770B5002100230F22C4781CB32E4C17
:10031000246804F4E064C4F5E064C4F30721C1F187
:100320000404E3B20A4144789C40E1B2847814406A
:1003300021430C07210E254C05786155047804F003
:100340001F050124AC4005786D11AD0005F1E025D5
:10035000C5F8004109E0047804F01F050124AC4011
:100360001B4D0678761145F8264070BD194A0A40A3
:100370000243154B1B1F1A60704739B1124A121DF8
:1003800012680243104B1B1D1A6006E00E4A121D34
:10039000126882430C4B1B1D1A607047042808D159
:1003A0004FF0E021096941F004014FF0E0221161B2
:1003B00007E04FF0E021096921F004014FF0E0224D
:1003C000116170470000FA050CED00E000E400E068
:1003D00080E100E080FFFF1F10B50446984884428A
:1003E00008D10121084600F086FB0021012000F021
:1003F00082FB76E09348844208D10121022000F07C
:100400007AFB0021022000F076FB6AE08E488442ED
:1004100008D10121042000F06EFB0021042000F02F
:100420006AFB5EE08948844208D10121082000F07F
:1004300062FB0021082000F05EFB52E08448844209
:1004400008D10121102000F056FB0021102000F0FF
:1004500052FB46E07F48844208D10121202000F071
:100460004AFB0021202000F046FB3AE07A48844213
:1004700008D10121402000F03EFB0021402000F087
:100480003AFB2EE07548844208D10121802000F01B
:1004900032FB0021802000F02EFB22E070488442D5
:1004A00008D10121801500F026FB0021A01500F0E5
:1004B00022FB16E06B48844208D10121401500F070
:1004C0001AFB0021601500F016FB0AE06648844222
:1004D00007D10121001500F00EFB0021201500F0CE
:1004E0000AFB10BDF0B50A4600210023002400BF1E
:1004F0003DE0012505FA01F3156805EA03049C4275
:1005000034D105684F000326BE40B5430560157918
:100510004E00B5400668354305601579012D02D0BF
:100520001579022D16D185684F000326BE40B543CC
:10053000856055794E00B5408668354385604568CD
:1005400001268E40B5434560456896798E40B6B227
:1005500035434560C5684F000326BE40B543C560BE
:10056000D5794E00B540C6683543C560491C102991
:10057000BFD3F0BD4FF6FF710160002101714171E1
:100580008171C171704708B54FF480320092009AB2
:100590000A430092009AC261C161009AC261C269B5
:1005A0000092C269009208BD0246002013690B4008
:1005B0000BB1012000E0002070470146086980B2BD
:1005C00070470246002053690B400BB1012000E048
:1005D000002070470146486980B270470183704728
:1005E000418370470AB1018300E041837047416154
:1005F000704742694A4042617047F0B500230024C9
:100600004D07ED0E02FA05F3CE1000F1200555F866
:1006100026504E07F70E0F26BE40B543CF1000F10F
:10062000200646F82750CE1000F1200555F8265038
:1006300045EA0304CE1000F1200545F82640F0BD40
:10064000000002400004024000080240000C02408A
:10065000001002400014024000180240001C02403A
:10066000002002400024024000280240F9480068AF
:1006700040F00100F74908600020F64908310860A1
:10068000F4480068F4490840F2490860F348091D3D
:100690000860F348EF4984310860F0481038091DBC
:1006A0000860EC48006820F48020EA4908600020D7
:1006B000E8490C310860E7498C3108607047002137
:1006C000E44A921C117011460870704710B501463B
:1006D0000022002300204A11012A02D1DD4C2368A8
:1006E00008E0022A03D1DB4C7034236802E0D94CC5
:1006F0007434236801F01F02012494401C400CB1A3
:10070000012000E0002010BD38B50020009000243A
:10071000002500BF3120FFF7D9FF05460098401C97
:1007200000900098B0F5A04F01D0002DF2D03120FC
:10073000FFF7CCFF08B1012400E00024204638BDBB
:1007400001460020C34A106820F0F80040EAC100CA
:1007500010607047C349086070470021BD4A70327D
:1007600011701170012802D004280AD104E001217F
:10077000B84A7032117005E00521B64A7032117026
:1007800000E000BF00BF7047B7490860704770B510
:10079000049C41EA82150126C6EB530645EA06454C
:1007A000054345EA0465AB4E361D356070BDAD4965
:1007B00008667047820142EA0172A64B84331A60D0
:1007C0007047A8498866704710B5830143EA016302
:1007D00043EA02739F4C8834236010BDA149086727
:1007E0007047A049C864704702460020994B0833FF
:1007F000186820F0EC6042EA01031843954B083377
:100800001860704702460020924B0833186820F0A9
:10081000784042EA010318438E4B08331860704752
:10082000014600208B4A0832106820F0030008437C
:100830001060704787480830006800F00C0070476F
:1008400001460020834A0832106820F0F000084377
:1008500010607047014600207E4A0832106820F47C
:10086000E05008431060704701460020794A083282
:10087000106820F4604040EAC10010607047F0B595
:10088000002100220024022500260223714F083790
:100890003F6807F00C0121B1042905D0082937D1A0
:1008A00005E0724F076036E0714F076033E0694F33
:1008B0003F1D3F68C7F38056664F3F1D3F6807F0F6
:1008C0003F036EB16A4FB7FBF3F7DFF888C10CF155
:1008D000040CDCF800C0CCF3881C07FB0CF40CE023
:1008E000624FB7FBF3F7DFF86CC10CF1040CDCF8D6
:1008F00000C0CCF3881C07FB0CF4564F3F1D3F682B
:10090000C7F301477F1C7D00B4FBF5F7076002E0E9
:10091000564F076000BF00BF4E4F08373F6807F0D3
:10092000F0010909534F7A5C0768D7404760494F87
:1009300008373F6807F4E051890A4E4F7A5C4768F0
:10094000D7408760434F08373F6807F46041490B41
:10095000484F7A5C4768D740C760F0BD002100F47B
:100960004072B2F5407F0AD13A4A0832116821F448
:10097000F811414A02401143364A08321160354AA3
:1009800070321268C0F30B031A43324B70331A6093
:100990007047354944390860704733494039086029
:1009A000704736490860704701460020294A8C325A
:1009B000106820F01F004A1E1043264A8C32106037
:1009C000704701460020234A8C32106820F4F8500A
:1009D0004A1E40EA02201F4A8C32106070470146CE
:1009E00000201C4A8C32106820F44010084310602C
:1009F000704701460020174A8C32106820F44000EE
:100A000008431060704701460020124A8C3210687B
:100A100020F440300843106070471949086070475F
:100A200039B10C4A3032126802430A4B30331A6033
:100A300006E0084A303212688243064B30331A60AF
:100A40007047F9B1034A343212680243014B343320
:100A50001A601CE000380240FFFFF6EA1030002464
:100A60000030002000004742800E47420024F4007E
:100A700000127A0000000020FFFCFF0F5C014742DB
:100A8000E01147428F4A126882438E4B1A607047CA
:100A900039B18C4A121D126802438A4B1B1D1A6021
:100AA00006E0884A121D12688243864B1B1D1A609D
:100AB000704739B1834A0C3212680243814B0C33C0
:100AC0001A6006E07F4A0C32126882437D4B0C3379
:100AD0001A60704739B17B4A103212680243794B71
:100AE00010331A6006E0774A103212688243754B61
:100AF00010331A60704739B1724A243A12680243BF
:100B0000704B243B1A6006E06E4A243A1268824316
:100B10006C4B243B1A60704739B16A4A203A12681C
:100B20000243684B203B1A6006E0664A203A12688E
:100B30008243644B203B1A60704739B1614A1C3ACA
:100B4000126802435F4B1C3B1A6006E05D4A1C3A88
:100B5000126882435B4B1C3B1A60704739B1594A9B
:100B6000143A12680243574B143B1A6006E0554A88
:100B7000143A12688243534B143B1A60704739B1E0
:100B8000504A103A126802434E4B103B1A6006E07E
:100B90004C4A103A126882434A4B103B1A60704725
:100BA00039B1484A1C3212680243464B1C331A6062
:100BB00006E0444A1C3212688243424B1C331A60DE
:100BC000704739B13F4A2032126802433D4B20330F
:100BD0001A6006E03B4A203212688243394B2033C8
:100BE0001A60704739B1374A243212680243354BD4
:100BF00024331A6006E0334A243212688243314BB0
:100C000024331A60704739B12E4A2C3212680243DD
:100C10002C4B2C331A6006E02A4A2C32126882438D
:100C2000284B2C331A60704739B1264A303212688B
:100C30000243244B30331A6006E0224A30321268F5
:100C40008243204B30331A607047012808D11D4978
:100C50003C31096841F008011A4A3C32116007E052
:100C600018493C31096821F00801164A3C321160EC
:100C7000704739B1134A273A12780243114B273B88
:100C80001A7006E00F4A273A127882430D4B273B31
:100C90001A7070470B484030006840F08070094976
:100CA00040310860704701460020064A283A126821
:100CB0000A400AB1012000E00020704701492639AE
:100CC000087070473438024010B50446FE4884422C
:100CD00008D101210846FFF752FF00210120FFF74C
:100CE0004EFF9DE0B4F1804F08D101210846FFF787
:100CF00035FF00210120FFF731FF91E0F3488442E6
:100D000008D101210220FFF729FF00210220FFF76F
:100D100025FF85E0EE48844208D101210420FFF739
:100D20001DFF00210420FFF719FF79E0E948844204
:100D300008D101210820FFF711FF00210820FFF74B
:100D40000DFF6DE0E448844208D101211020FFF737
:100D500005FF00211020FFF701FF61E0DF4884421A
:100D600008D101212020FFF7F9FE00212020FFF704
:100D7000F5FE55E0DA48844208D101210220FFF750
:100D8000FEFE00210220FFF7FAFE49E0D54884422A
:100D900009D101210804FFF7F2FE00214FF4803051
:100DA000FFF7EDFE3CE0D048844209D10121480420
:100DB000FFF7E5FE00214FF40030FFF7E0FE2FE0E3
:100DC000CA48844209D101218804FFF7D8FE0021D6
:100DD0004FF48020FFF7D3FE22E0C548844208D1BB
:100DE00001214020FFF7BAFE00214020FFF7B6FEA8
:100DF00016E0C048844208D101218020FFF7AEFEF2
:100E000000218020FFF7AAFE0AE0BB48844207D1F8
:100E100001218015FFF7A2FE0021A015FFF79EFE1D
:100E200010BD00220288A84B98420ED0AC4B9842CD
:100E30000BD0B0F1804F08D0A44B984205D0A44B02
:100E4000984202D0A34B984204D14FF68F731A40B8
:100E50004B881A43A04B984207D0A04B984204D02D
:100E60004FF6FF431A400B891A4302804B68C36256
:100E70000B880385944B984202D0994B984201D13C
:100E80008B7A03860123838270474FF0FF314160E4
:100E90000021018001814180817270470185828239
:100EA00070470A46002101884FF68F73194011439D
:100EB0000180704741627047C16270470146486ACD
:100EC00070470146088D704721B1028842F0020246
:100ED000028004E002884FF6FD731A4002807047DA
:100EE00021B1028842F00402028004E002884FF639
:100EF000FB731A400280704721B1028842F08002E1
:100F0000028004E002884FF67F731A400280704727
:100F100002884FF6F7731A40028002880A43028063
:100F2000704702884FF6FF431A40028002880A4346
:100F30000280704721B1028842F00102028004E081
:100F400002884FF6FE731A400280704770B5002485
:100F500000220023058C4FF6FE7635400584028C76
:100F60008388048B4FF68F752C40B51E2C400D885E
:100F70002C43751E2A408D892A434D882A43524DA1
:100F8000A84202D0564DA84213D14FF6F7752A4019
:100F9000CD892A434FF6FB752A408D882A434FF6A8
:100FA000FF652B404FF6FF552B400D8A2B434D8A92
:100FB0002B43838004838D684563028470BD70B5C4
:100FC000002400220023058C4FF6EF76354005847F
:100FD000028C8388048B48F6FF752C404FF6FF4542
:100FE0002C400D884FF6FF7606EA05252C434FF678
:100FF000DF752A408D8906EA05152A434D8806EAE1
:1010000005152A43304DA84202D0354DA8421DD1C6
:101010004FF67F752A40CD894FF6FF7606EA051513
:101020002A434FF6BF752A408D8806EA05152A43E4
:101030004FF6FF352B404FF2FF752B400D8A06EA25
:1010400085052B434D8A06EA85052B43838004835F
:101050008D688563028470BD70B500240022002372
:10106000058C4FF6FF6635400584028C8388848B9F
:101070004FF68F752C404FF6FC752C400D882C4395
:101080004FF6FF552A408D894FF6FF7606EA052573
:101090002A434D8806EA05252A430B4DA84202D073
:1010A0000F4DA84238D14FF2FF752A40CD894FF637
:1010B000FF7606EA05252A434FF6FF352A408D883C
:1010C00006EA05252A4319E000000140000400401B
:1010D00000080040000C00400010004000140040D8
:1010E000000401400040014000440140004801402C
:1010F00000180040001C0040002000404EF6FF7524
:101100002B404DF6FF752B400D8A06EA05152B4343
:101110004D8A06EA05152B43838084838D68C56359
:10112000028470BD70B5002200230024058C4EF6A9
:10113000FF7635400584038C8488828B48F6FF75E2
:101140002A404FF6FF452A400D884FF6FF7606EA03
:1011500005252A434DF6FF752B408D8906EA053596
:101160002B434D8806EA05352B43FE4DA84202D09D
:10117000FD4DA84208D14BF6FF752C400D8A4FF665
:10118000FF7606EA85152C43848082838D6805648A
:10119000038470BD00210180418081808160818154
:1011A000C18101824182704770B50346002000244E
:1011B0001846183001258D40ACB21D8CA5431D8406
:1011C00009B108290AD100EB610005684FF68F7656
:1011D000354005600568154305600FE00D1FC5F338
:1011E0004E052844056848F6FF76354005600568D9
:1011F0004FF6FF7606EA02263543056070BD41636F
:10120000704781637047C1637047016470470A4645
:101210000021018B4FF68F731940114301837047F2
:101220000A460021018B48F6FF7319404FF6FF7301
:1012300003EA02231943018370470A460021818B88
:101240004FF68F7319401143818370470A4600217E
:10125000818B48F6FF7319404FF6FF7303EA0223B0
:101260001943818370470A460021018B4FF6F773BB
:1012700019401143018370470A460021018B4FF248
:10128000FF7319404FF6FF7303EA022319430183EA
:1012900070470A460021818B4FF6F77319401143BE
:1012A000818370470A460021818B4FF2FF731940FA
:1012B0004FF6FF7303EA02231943818370470A46FE
:1012C0000021018B4FF6FB731940114301837047D6
:1012D0000A460021018B4FF6FF3319404FF6FF738A
:1012E00003EA02231943018370470A460021818BD8
:1012F0004FF6FB7319401143818370470A46002162
:10130000818B4FF6FF3319404FF6FF7303EA022338
:101310001943818370470A460021018B4FF67F7382
:1013200019401143018370470A460021018BC1F324
:101330000E014FF6FF7303EA02231943018370473E
:101340000A460021818B4FF67F7319401143818338
:1013500070470A460021818BC1F30E014FF6FF73DF
:1013600003EA02231943818370470A460021018C56
:101370004FF6FD7319401143018470470A4600215E
:10138000018C4FF6F77319401143018470470A46E8
:101390000021018C4FF6DF7319404FF6FF7303EA0B
:1013A00002131943018470470A460021018C4FF64D
:1013B0007F7319404FF6FF7303EA02131943018448
:1013C00070470A460021018C4FF6FF5319404FF633
:1013D000FF7303EA02231943018470470A46002180
:1013E000018C4FF2FF7319404FF6FF7303EA02239B
:1013F0001943018470470A460021018C4DF6FF73A2
:1014000019404FF6FF7303EA023319430184704712
:1014100030B5002301248C40A3B2048C9C43048487
:10142000048C02FA01F5ADB22C43048430BD30B512
:10143000002304248C40A3B2048C9C430484048CB9
:1014400002FA01F5ADB22C43048430BD828B4FF219
:10145000FF331A408283828B4FF6FF7303EA012326
:101460001A4382837047F0B50C46154600210022CE
:101470000026078C4EF6FF7C07EA0C070784818B59
:10148000028C4FF6FF7707EA043640F6FF473940F3
:101490004FF6FF7707EA052739434FF6FF7707EA4C
:1014A0000337394345F6FF773A4046F480573A43CD
:1014B00081830284F0BD828B4FF6F3731A408283DE
:1014C000828B0A4382837047F0B50C461546002193
:1014D00000220026078C4FF6FF6C07EA0C070784F2
:1014E000818B028C4FF6FF7707EA04264FF60C77C4
:1014F00039404FF6FF7707EA03172F4339434FF27E
:10150000FF573A4046F480773A4381830284F0BD26
:10151000028B4FF2FF331A400283028B4FF6FF73A8
:1015200003EA01231A4302837047F0B50C461546BF
:10153000002100220026078C4FF6EF7C07EA0C07FB
:101540000784018B028C4FF6FF7707EA041640F6FA
:10155000FF4739404FF6FF7707EA033739434FF625
:10156000FF7703E0000001400004014007EA05277F
:1015700039434FF65F773A4046F010073A4301830C
:101580000284F0BD028B4FF6F3731A400283028B84
:101590000A4302837047F0B50C461546002100222D
:1015A000068C4FF6FE773E400684018B028C4FF688
:1015B0000C7631407E1C06EA03162E4331434FF66B
:1015C000F576324044F00106324301830284F0BDD7
:1015D00070B505460C46208850B92389A2886188D9
:1015E0002846FFF7D8FFE1882846FFF7CBFF25E024
:1015F000208804280AD12389A28861882846FFF719
:1016000094FFE1882846FFF783FF17E02088082829
:101610000AD12389A28861882846FFF755FFE1880F
:101620002846FFF748FF09E02389A28861882846F9
:10163000FFF719FFE1882846FFF708FF70BD00217A
:1016400001804180012181800021C180018170479A
:101650002DE9F04105460C4600260127608808B9AF
:10166000022600E00026A088012801D1022700E020
:1016700001272088A0B92389A28861882846FFF71E
:101680008AFFE1882846FFF77DFF23893A463146E5
:101690002846FFF74AFFE1882846FFF739FF13E0A5
:1016A0002389A28861882846FFF73FFFE188284602
:1016B000FFF72EFF23893A4631462846FFF76BFF96
:1016C000E1882846FFF75EFFBDE8F0810146486BE0
:1016D00070470146886B70470146C86B70470146EA
:1016E000086C70470A884B881A438B881A43CB884A
:1016F0001A430B891A434B891A438B891A43A0F862
:10170000442070470021018041808180C180018197
:1017100041818181704731B1B0F8442042F40042E8
:10172000A0F8442005E0B0F84420C2F30E02A0F86F
:101730004420704721B1828842F00402828004E094
:1017400082884FF6FB731A408280704721B18288ED
:1017500042F00102828004E082884FF6FE731A4054
:10176000828070471AB183890B43838102E08389A9
:101770008B43838170478182704702460020138A21
:101780000B400BB1012000E000207047CA430282E9
:10179000704730B50246002000230024158A05EA70
:1017A0000103958905EA010413B10CB1012000E0A1
:1017B000002030BDCA430282704741EA0203A0F80C
:1017C000483070471AB183890B43838102E08389D3
:1017D0008B438381704721B1828842F00802828066
:1017E00004E082884FF6F7731A40828070470189BF
:1017F0004FF6F8721140018170470A4600210189B5
:101800004FF68F73194011430181704730B504467C
:101810000D4629462046FFF7F0FF208940F00700DB
:10182000208130BD2DE9F04104460D4616461F4685
:10183000602D06D13B46012231462046FFF775FE5A
:1018400005E03B46012231462046FFF7A4FE29462B
:101850002046FFF7D2FF208940F007002081BDE835
:10186000F08130B50C4600210189C9B24FF6FF75F1
:1018700005EA0325154325432943018130BD2DE9A0
:10188000F04105460E4617469846002443463A4620
:1018900031462846FFF7E5FF2C894FF6F8700440E3
:1018A00044F007044FF68F70044044F070042C811C
:1018B000BDE8F081F0B504460D4616461F463B468E
:1018C000324629462046FFF7CCFF208940F480406D
:1018D0002081F0BD82884FF68F731A408280828803
:1018E0000A438280704702894FF6F8731A400281DA
:1018F00002890A430281704702894FF67F731A40BA
:10190000028102890A4302817047F0B50C461546F0
:101910001E460021002200230189028B038C4FF612
:10192000F877394021434FF6FC473A4040F201171F
:101930003A434FF6DD773B404FF6FF7707EA06174D
:101940002F433B43018102830384F0BD21B1828890
:1019500042F08002828004E082884FF67F731A4052
:1019600082807047A0F850107047000010B5044600
:10197000FA48844208D101211020FFF700F9002124
:101980001020FFF7FCF857E0F548844209D1012107
:101990004804FFF7E3F800214FF40030FFF7DEF8CA
:1019A0004AE0F048844209D101218804FFF7D6F8C3
:1019B00000214FF48020FFF7D1F83DE0EA4884424F
:1019C00009D10121C804FFF7C9F800214FF4002014
:1019D000FFF7C4F830E0E548844209D10121080549
:1019E000FFF7BCF800214FF48010FFF7B7F823E0B1
:1019F000DF48844208D101212020FFF7C0F80021F0
:101A00002020FFF7BCF817E0DA48844209D1012111
:101A10008807FFF7A3F800214FF08040FFF79EF8FA
:101A20000AE0D548844207D101214005FFF796F826
:101A300000216005FFF792F810BD2DE9FF4705462C
:101A40000E460024A14600BFA046B08900B100BFE9
:101A50002C8A24F44054F08804432C82AC8941F24F
:101A60000C608443B088318908437189084304437A
:101A7000AC81AC8A24F44074B0890443AC826846DB
:101A8000FEF7FDFEB548854202D0B948854202D135
:101A9000DDF80C9001E0DDF80890A88900F4004022
:101AA00040B109EBC90000EB091031684900B0FBF7
:101AB000F1F707E009EBC90000EB09103168890074
:101AC000B0FBF1F76420B7FBF0F0040120096421BA
:101AD00001FB1078A88900F4004040B1322000EBEF
:101AE000C800B0FBF1F000F00700044308E032202A
:101AF00000EB08106421B0FBF1F000F00F0004438C
:101B00002C81BDE8FF874FF41651016000218180D0
:101B1000C18001810C21418100218181704710B574
:101B200002460020108A20F470600B884C88234302
:101B30008C882343CC8823431843108210BD002196
:101B4000018041808180C180704721B1828942F447
:101B50000052828104E082894DF6FF731A4082812F
:101B60007047028B02F47F420283028B0A43028396
:101B7000704721B1828942F40042828103E0828968
:101B8000C2F30E028281704721B1828A42F4006260
:101B9000828204E0828A4FF2FF731A408282704789
:101BA000C1F308028280704701468888C0F30800AC
:101BB0007047028A4FF6F0731A400282028A0A4383
:101BC0000282704721B1828942F00202828104E0E0
:101BD00082894FF6FD731A408281704782894FF2E5
:101BE000FF731A40828182890A4382817047028A88
:101BF0004FF6DF731A400282028A0A43028270475C
:101C000021B1028A42F48042028204E0028A4BF649
:101C1000FF731A4002827047818941F0010181817E
:101C2000704721B1828A42F00802828204E0828AEF
:101C30004FF6F7731A4082827047028BD2B202834A
:101C4000028B42EA01220283704721B1828A42F06C
:101C50002002828204E0828A4FF6DF731A40828279
:101C6000704721B1828A42F01002828204E0828AA7
:101C70004FF6EF731A4082827047828A4FF6FB73E9
:101C80001A408282828A0A438282704721B1828A04
:101C900042F00202828204E0828A4FF6FD731A400B
:101CA000828270471AB1838A0B43838202E0838A5F
:101CB0008B4383827047F0B503460024002600253D
:101CC000002040F66A17B94200D100BF1846C1F3A0
:101CD000421401F01F06012707FA06F5012C01D175
:101CE0000C3004E0022C01D1103000E014301AB1A5
:101CF00007682F43076002E00768AF430760F0BD45
:101D000002460020B1F5007F00D100BF13880B40D0
:101D10000BB1012000E00020704701F40072B2F521
:101D2000007F00D100BFCA430280704770B50246F1
:101D3000002400230025002040F66A16B14200D19D
:101D400000BFC1F3421501F01F03012606FA03F399
:101D5000012D13D19689334017E000000010014097
:101D60000044004000480040004C0040005000404B
:101D70000014014000780040007C0040022D02D198
:101D8000168A334001E0968A33400C12012606FA87
:101D900004F41688344013B10CB1012000E0002097
:101DA00070BD10B50022002340F66A14A14200D194
:101DB00000BF0A1201249440A3B2DC43048010BD8A
:101DC0000948804709480047FEE7FEE7FEE7FEE7CF
:101DD000FEE7FEE7FEE7FEE7FEE7FEE7044805490B
:101DE000054A064B70470000F91E000889010008EB
:101DF000E0040020E00A0020E0060020E0060020C9
:101E0000704700BFFEE700BFFEE700BFFEE700BF70
:101E1000FEE7704770477047704700000CB5002020
:101E2000019000907648006840F480307449086062
:101E300000BF7348006800F4003000900198401C17
:101E40000190009818B90198B0F5A04FF1D16C48F5
:101E5000006800F4003010B10120009001E0002083
:101E600000900098012846D165484030006840F055
:101E700080506349403108606248006840F4404047
:101E8000604908605E48083000685D4908310860B4
:101E90000846006840F4004008600846006840F4C6
:101EA000A05008605848091F0860081F006840F0EB
:101EB0008070091F086000BF5148006800F0007082
:101EC0000028F9D040F20570504908604C480830AD
:101ED000006820F003004A4908310860084600689D
:101EE00040F00200086000BF45480830006800F07C
:101EF0000C000828F8D10CBD10B54548006840F426
:101F00007000434908603E48006840F001003C49C9
:101F1000086000203A4908310860394800683D49A6
:101F20000840374908603C48091D0860081F0068E0
:101F300020F48020091F0860002031490C3108601E
:101F4000FFF76CFF4FF0006031498039086010BD29
:101F500070B500200022022300240221284D0835FC
:101F60002D6805F00C0020B1042806D0082834D1D3
:101F700007E02A4D2A4E356033E02A4D284E356061
:101F80002FE01F4D2D1D2D68C5F380541C4D2D1DB8
:101F90002D6805F03F0154B1224DB5FBF1F5184E07
:101FA000361D3668C6F3881605FB06F209E01B4DA0
:101FB000B5FBF1F5124E361D3668C6F3881605FBE3
:101FC00006F20F4D2D1D2D68C5F301456D1C6B00EC
:101FD000B2FBF3F5124E356003E0104D104E356044
:101FE00000BF00BF064D08352D68C5F303150E4E22
:101FF000705D0B4D2D68C540094E356070BD000009
:10200000003802400070004008544007003C024085
:1020100088ED00E0FFFFF6FE103000240024F400FD
:102020001000002000127A001400002010B50446B1
:10203000FE48844209D101214806FEF78FFD0021A8
:102040004FF00070FEF78AFD08E001218806FEF7D8
:1020500085FD00214FF08060FEF780FD10BD30B59A
:10206000024600200023146824F00204146014685F
:1020700044F00104146000E05B1C546804F00104A7
:102080001CB94FF6FF74A342F6D1546804F0010462
:102090000CB900206CE08C79012C04D1146844F058
:1020A0008004146003E0146824F080041460CC7988
:1020B000012C04D1146844F04004146003E0146857
:1020C00024F0400414600C7A012C04D1146844F00C
:1020D0002004146003E0146824F0200414604C7A97
:1020E000012C04D1146844F01004146003E0146857
:1020F00024F0100414608C7A012C04D1146844F08C
:102100000804146003E0146824F008041460CC7A16
:10211000012C04D1146844F00404146003E0146832
:1021200024F0040414608C78A407CD7844EA056494
:102130000D7944EA05444D7944EA05540D886D1E35
:102140002C43D461146824F001041460002300E0DF
:102150005B1C546804F001041CB14FF6FF74A342E9
:10216000F6D1546804F001040CB1002000E0012015
:1021700030BD10B50021837A012202FA03F1AC4A86
:10218000126842F00102AA4B1A60A94A1C32126876
:102190008A43A74B1C331A60027BCAB9A44A0C328B
:1021A00012688A43A24B0C331A604288C38842EA01
:1021B00003439F4A4032847A42F83430028883884D
:1021C00042EA03439A4A4032847A02EBC4025360E3
:1021D000027B012A19D1964A0C3212680A43944BA9
:1021E0000C331A604288038842EA0343904A403223
:1021F000847A42F83430C288838842EA03438C4AA6
:102200004032847A02EBC4025360C27A3AB9884AF7
:10221000121D12688A43864B1B1D1A6006E0844A11
:10222000121D12680A43824B1B1D1A60028932B9C3
:102230007F4A143212688A437D4B14331A60028934
:10224000012A06D17A4A143212680A43784B1433B1
:102250001A60427B012A06D1754A1C3212680A4371
:10226000734B1C331A60724A126822F00102704BE1
:102270001A6010BD00218171C171017241728172B9
:10228000C1728170C170032101710221417101216C
:10229000018070476649096841F00101644A116094
:1022A0001146096843F60E729143614A1160114666
:1022B000096841EA002111601146096821F0010115
:1022C0001160704721B1026842F48032026003E07D
:1022D000026822F4803202607047E1B1026842F085
:1022E000800202604FF4C272125842F480734FF4BD
:1022F000C27213504FF4CA72125842F480734FF4F2
:10230000CA7213504FF4D272125842F480734FF4D1
:10231000D27213501BE0026822F0800202604FF478
:10232000C272125822F480734FF4C27213504FF4E9
:10233000CA72125822F480734FF4CA7213504FF4C9
:10234000D272125822F480734FF4D2721350704735
:1023500010B502460020936803F08063B3F1806FEC
:1023600000D110E0936803F00063B3F1006F01D176
:10237000012008E0936803F08053B3F1805F01D13E
:10238000022000E00420042879D002F5C07303EB9A
:1023900000131B6803F0010402F5C07303EB001384
:1023A0001C600B7A7BB94B7A0C8843EA445302F5E4
:1023B000C07404EB00142468234302F5C07404EBDA
:1023C0000014236010E00B7A4C6843EAC4034C7A93
:1023D000234302F5C07404EB00142468234302F580
:1023E000C07404EB001423608B7A03F00F038B722C
:1023F00002F5C07303EB00135B6823F00F0402F5D2
:10240000C07303EB00135C6002F5C07303EB0013B1
:102410005B688C7A234302F5C07404EB001463609C
:102420008B7B1C064B7B44EA034403E000640040C2
:10243000006600400B7B44EA0323CC7A234302F579
:10244000C07404EB0014A3608B7C1C064B7C44EA34
:1024500003440B7C44EA0323CC7B234302F5C07482
:1024600004EB0014E36002F5C07303EB00131B6878
:1024700043F0010402F5C07303EB00131C6010BDB0
:1024800010B50246002321B1012907D002290FD13E
:1024900009E09068F94C00EA04030BE09068F84CFE
:1024A00000EA040306E09068F64C00EA040301E049
:1024B000002300BF00BFF44C181BA34216D007DC5A
:1024C00083B16FF08060184470B1022818D111E018
:1024D000B0F5007F10D0ED4C204448B1B0F5003F7E
:1024E0000ED10BE002230DE000230BE0002309E0F6
:1024F000002307E0012305E0012303E0012301E0BD
:10250000002300BF00BFD8B210BD21B1012907D000
:1025100002290FD109E0826842F0800282600AE05D
:10252000826842F40042826005E0826842F4000260
:10253000826000E000BF00BF704710B500F5D8739F
:1025400003EB01131B6803F004031372137A53B9EE
:1025500000F5D87303EB01131B6840F2FF7404EA23
:102560005353136009E000F5D87303EB01131B68A4
:102570006FF0604404EAD303536000F5D87303EBB3
:1025800001131B6803F00203537200F5D87303EBC9
:1025900001135B6803F00F03937200F5D87303EB2C
:1025A00001135B681B0AD37400F5D87303EB0113A6
:1025B0009B68D37200F5D87303EB01139B681C0A68
:1025C000147300F5D87303EB01139B681C0C547350
:1025D00000F5D87303EB01139B681B0E937300F592
:1025E000D87303EB0113DB68D37300F5D87303EBE7
:1025F0000113DB681C0A147400F5D87303EB011394
:10260000DB681C0C547400F5D87303EB0113DB6812
:102610001B0E937421B9C36843F02003C36003E029
:10262000036943F02003036110BD21B9C26842F081
:102630002002C26003E0026942F02002026170479A
:102640000246002019B9D36803F0030006E001290F
:1026500003D1136903F0030000E00020704710B5B8
:1026600002460B4600204FF6FF71BBB9146824F0F8
:10267000020444F00104146000E0491E546804F0B0
:102680000304012C01D00029F7D1546804F003049D
:10269000012C01D0002032E0012030E0012B13D1C9
:1026A000146824F00304146000E0491E546804F028
:1026B00003040CB10029F8D1546804F003040CB1F0
:1026C00000201CE001201AE0022B17D1146824F02E
:1026D000010444F00204146000E0491E546804F050
:1026E0000304022C01D00029F7D1546804F003043C
:1026F000022C01D0002002E0012000E0002010BDEB
:10270000014600200A6822F0010242F002020A603B
:102710004A6802F00302022A00D1012070470146F4
:102720004FF6FF7200200B6823F002030B6000E0FD
:10273000521E4B6803F00203022B01D1002AF7D18D
:102740004B6803F00203022B00D0012070470146C2
:1027500000208A6902F070007047014600208A69F3
:10276000100E7047014600208A69C2F30740704787
:102770001AB143690B43436102E043698B434361F0
:10278000704710B50246002001F4700343B193690D
:10279000C1F3130423400BB101202DE000202BE0F6
:1027A00001F0807343B15368C1F3130423400BB1AC
:1027B000012021E000201FE001F0006343B1936895
:1027C000C1F3130423400BB1012015E0002013E0F6
:1027D00001F0007343B1D368C1F3130423400BB17C
:1027E000012009E0002007E01369C1F3130423402E
:1027F0000BB1012000E0002010BD0022244B9942C3
:1028000002D10023836111E0C1F3130201F00073D0
:102810000BB1C2600AE001F080630BB1026105E018
:1028200001F000630BB1826000E042607047024635
:10283000002002EA01030BB1012000E000207047F4
:1028400070B504460D46002660692840002872D005
:10285000B5F5807F69D01DDC082D42D006DC012D46
:102860002DD0022D31D0042D7FD134E0102D3ED05B
:10287000202D42D0402D78D145E000000300000417
:102880000003000800000310000100080001FFF72A
:102890007000F030B5F5004F61D009DCB5F5007F70
:1028A0004AD0B5F5806F4DD0B5F5006F5DD150E0E1
:1028B000B5F5803F2DD0B5F5003F56D12FE0A0688B
:1028C0005549FFF7B4FF064651E0E0680321FFF7E2
:1028D000AEFF06464BE0E0680821FFF7A8FF06467A
:1028E00045E0E0681021FFF7A2FF06463FE02069BF
:1028F0000321FFF79CFF064639E020690821FFF716
:1029000096FF064633E020691021FFF790FF064648
:102910002DE060680821FFF78AFF064627E060681F
:102920001021FFF784FF064621E0A0690121FFF78F
:102930007EFF06461BE01BE0A0690221FFF777FF40
:10294000064614E0A0690421FFF771FF06460EE079
:102950000BE0A0697021FFF76AFF064607E0606898
:102960000421FFF764FF064601E0002600BF00E0F7
:102970000026304670BDB1F5007F3AD00FDC20292B
:1029800028D006DC01291CD004291DD0082940D1FB
:102990001DE0402921D0B1F5807F3AD126E0B1F584
:1029A000004F31D006DCB1F5806F25D0B1F5006F56
:1029B0002FD124E0B1F5803F12D0B1F5003F28D1EE
:1029C00011E0154A826025E00822C26022E0102250
:1029D000C2601FE0082202611CE01022026119E0BF
:1029E0000822426016E01022426013E00422426096
:1029F00010E0042242600DE0042242600AE000225E
:102A000082610422426005E0002282610422426069
:102A100000E000BF00BF704701010100016821F024
:102A2000010101600021016041608160C1600161BC
:102A300021214161DB49884204D13D21D94A103A24
:102A400091608CE0D7491831884205D14FF4746108
:102A5000D44A103A916082E0D2493031884205D19F
:102A60004FF47411CF4A103A916078E0CD49483163
:102A7000884205D14FF07461CA4A103A91606EE005
:102A8000C8496031884204D1C749C64A103AD1606A
:102A900065E0C4497831884204D1C449C14A103A3A
:102AA000D1605CE0BF499031884204D1C049BD4A41
:102AB000103AD16053E0BB49A831884205D14FF0AC
:102AC0003D51B84A103AD16049E0BA49884204D130
:102AD0003D21B84A083A116041E0B64918318842B0
:102AE00005D14FF47461B34A083A116037E0B14937
:102AF0003031884205D14FF47411AE4A083A116062
:102B00002DE0AC494831884205D14FF07461A94AA3
:102B1000083A116023E0A7496031884204D1A249F4
:102B2000A44A121F11601AE0A2497831884204D1E8
:102B30009E49A04A121F116011E09E4990318842BF
:102B400004D19B499B4A121F116008E09949A831A2
:102B5000884204D14FF03D51964A121F11607047D0
:102B600010B500220268944B1A40CC680B682343CE
:102B70004C6923438C692343CC6923430C6A234368
:102B80004C6A23438C6A23434C6B23438C6B234353
:102B90001A430260426922F00702D1E90B34234351
:102BA0001A4342610B6943604B6883608B68C36062
:102BB00010BD0021016041608160C160016141611F
:102BC0008161C161016241628162C16201634163ED
:102BD0008163704721B1026842F00102026003E0A4
:102BE000026822F001020260704721B1026842F4DB
:102BF0000042026003E0026822F400420260704773
:102C000021B1026842F02002026003E0026822F073
:102C1000200202607047416070470146486880B2F8
:102C2000704722B1036843F40023036003E00368A4
:102C300023F4002303600161704721B1026842F46C
:102C40008022026003E0026822F480220260704762
:102C50000AB1016100E0C1607047014600200A68C6
:102C600002F400220AB1012000E000207047014672
:102C700000200A6802F001020AB1012000E00020F1
:102C80007047014600204A6902F03800704730B5AD
:102C900003460A4600200024464DAB4202D2414979
:102CA000103901E04349103902F000550DB14C686C
:102CB00000E00C68414D2C4004EA02050DB10120F2
:102CC00000E0002030BD02463A4B9A4202D235481D
:102CD000103801E03748103801F000531BB1374B72
:102CE0000B40C36002E0354B0B408360704710B56A
:102CF00001F080034BB122B1436943F0800343618B
:102D000003E0436923F08003436180290BD02AB19B
:102D1000036801F01E042343036004E0036801F02C
:102D20001E04A343036010BD70B5024600200024BA
:102D30000025204EB24202D21A4B103B01E01D4B3F
:102D4000103B1F4E0E4036B11E2606EAD1241668EF
:102D500006EA040502E0566906F0800501F0005617
:102D60000EB15C6800E01C68144E344004EA0106B1
:102D700016B10DB1012000E0002070BD02460D4BE0
:102D80009A4202D20748103801E00A48103801F090
:102D900000531BB1094B0B40C36002E0074B0B40D3
:102DA00083607047106002403D000020400F00200B
:102DB00000003D20106402403F801CF07D0F7D0F1D
:102DC0003C0F3C0F10B52DED068B6448007838B9E8
:102DD00000216348416463480078401C5F490870E3
:102DE0005E480078012807D15F49087000205B49E0
:102DF0000870BDEC068B10BD5C48006802F043FD16
:102E000041EC1A0B9FED5A0B53EC102B02F0A2FD74
:102E100041EC180B5249486C02F035FD41EC190B9E
:102E200053EC182B02F094FE07D84C480078401E53
:102E30004A49087000214A48416401F070FF00BF10
:102E4000D7E710B54FF4E1604B49086008460168C8
:102E50004A48FEF7D4F910BD10B54FF4FA70464950
:102E60000860084601684548FEF7C9F910BD10B56D
:102E700004214348FDF798FB10B90120414908702F
:102E800010BD00204049086048608860C8603F4825
:102E900000683F4908603D48406848603B4880689A
:102EA00088603A48C068C860704710B52E480078FE
:102EB000072834D2DFE800F0040C171D23292F0067
:102EC000FFF7DFFF01F08DFD00203249087027E099
:102ED00001F00BF901F085FD01202E49087000205A
:102EE000284908701CE0FFF7C2FF0220294908703A
:102EF00016E0FFF7B1FF03202649087010E0FFF746
:102F0000A0FF0420234908700AE0FFF75BFF0520BB
:102F10002049087004E005201E49087000E000BF49
:102F200000BF10BD41F65831002000BF13E0164A23
:102F300052F820208A4202DD134A42F82010124A39
:102F400052F820204B429A4203DA4A420E4B43F891
:102F50002020421CD0B20428E9DB70472E0000205C
:102F6000DC0000202D0000202C000020D4000020D8
:102F7000CDCCCCCCCCCCEC3F2800002000040040D1
:102F80000008024025000020C00000207C01002035
:102F90006C0400202400002070480078704710B5B1
:102FA000FFF7FAFF092865D2DFE800F0050E646438
:102FB0001764442D5B0002216948FDF70FFB0121D6
:102FC0006748FDF70DFB5EE002216548FDF706FB53
:102FD00001216348FDF704FB55E062480068C828FA
:102FE00008D801215E48FDF7FBFA02215C48FDF795
:102FF000F5FA07E001215A48FDF7F2FA0221584894
:10300000FDF7EEFA3FE057480068B0F5FA7F08D8C0
:1030100001215348FDF7E4FA02215148FDF7E0FA97
:1030200007E001214E48FDF7D9FA02214C48FDF78F
:10303000D7FA28E04B480068B0F5967F08D8012100
:103040004748FDF7CDFA02214548FDF7C7FA07E0EA
:1030500001214348FDF7C2FA02214148FDF7C0FAB9
:1030600011E001213E48FDF7B9FA02213C48FDF785
:10307000B7FA08E001213A48FDF7B2FA02213848D0
:10308000FDF7AEFA00BF00BF10BD344908707047AD
:1030900010B5FFF781FF20B1012808D0042831D1F5
:1030A0002DE0FFF7EEFE0420FFF7EFFF2BE02E48A8
:1030B0000068401C2C4908602C480068B0F5967FD9
:1030C0001CD90420FFF7E1FF2748006840F6B8311B
:1030D000884213D900202449086000BFBFF34F8FF6
:1030E0002348006800F4E06022490843001D20499D
:1030F0000860BFF34F8F00BF00BFFEE703E0FFF79C
:10310000D4FE00E000BF00BF10BD10B51748006836
:10311000401C1649086018480078401C1649087081
:10312000FFF7B6FFFFF73BFFFFF736FF042803D199
:1031300001201249087002E00020104908700E4872
:1031400000780A2190FBF1F201FB120020B900F097
:10315000D3FD00200849087010BD00003000002099
:1031600000080240880000203C00002034000020BD
:103170000CED00E00000FA053900002038000020C6
:1031800001884FF6FE72914202DA0188491C0180E3
:1031900070470021018070470346642050439842E5
:1031A00002DA0120087001E00020087008787047FA
:1031B00010B5002410E02F4901EB4400FFF7E0FFB9
:1031C0002C4B143B33F8142028331919143B33F8D3
:1031D0001400FFF7E1FF641C0A2CECDB25481438CF
:1031E00090F82C00012811D02248143890F82D00B6
:1031F00001280BD01F48143890F82E00012805D064
:103200001C48143890F82F00012803D10520FFF73F
:103210003CFF2EE01748143890F82800012811D000
:103220001448143890F8290001280BD0114814389C
:1032300090F82A00012805D00E48143890F82B0089
:10324000012803D10620FFF720FF12E009481438B7
:1032500090F83000012803D10620FFF716FF08E0A0
:103260000448143890F83100012802D10720FFF7F4
:103270000CFF10BD540000201FB500200023009358
:103280000193029303930021002200BF30E0774BAB
:1032900053F820304EF66024A34205DD734B53F8FB
:1032A0002030734CA3420CDB704B53F82030714C30
:1032B000A34218DA6D4B53F820306D4C6442A342A0
:1032C00011DD6A4B53F82030002B06DA674B53F8B8
:1032D00020305B424DF8203009E0644B53F8203039
:1032E0004DF8203003E04FF0FF334DF82030401C04
:1032F0000428CCDB00200CE05DF8203043B15DF801
:1033000020305B1C23B15DF820301944531CDAB225
:10331000401C0428F0DB91FBF2F3962493FBF4F3BA
:10332000554C23601FBD08B554480078002840D193
:1033300053480088052839DB51484088052835DB8B
:103340004F488088052831DB4D48C08805282DDB93
:103350004C480088401C4B490880084600880A28D1
:1033600075D100204649088048808880C880464939
:10337000486000214448416141624163434800681C
:10338000404242490860084640684042486008465A
:103390008068404288600846C0684042C86001209A
:1033A0003649087000203749088050E001F01CFCC5
:1033B0004DE032480078012849D13148008805287D
:1033C00043DB2F48408805283FDB2D4880880528AF
:1033D0003BDB2B48C088052837DB2A480088401C87
:1033E00028490880084600880A2830D10020032395
:1033F00006220521009000F01BF92349486800EBE4
:10340000D0714910194A11601F49486900EBD07109
:10341000491051601C49486A00EBD0714910916015
:103420001949486B00EBD0714910D160FFF724FFB8
:10343000022000F0D4FF0220104908704FF4E13060
:1034400000F0ECFAFFF71DFD01E001F0CDFB08BD37
:103450000D4901EB0011098931B9094931F8101002
:10346000491C074A22F81010704700007C01002018
:10347000F8240100A015FFFF800000208C00002030
:10348000740000207C000020DC000020C000002030
:103490001CB501210420FDF7C3FA01208DF80400BA
:1034A0000320009000208DF8060001208DF8070011
:1034B00003208DF8050069460148FDF713F81CBD8F
:1034C0000008024030B58BB005460C4601210220B1
:1034D000FDF7EFFA01210846FDF7A2FA02208DF868
:1034E000180000208DF81A004020059001208DF86A
:1034F0001B0003208DF8190005A93848FCF7F2FFDE
:10350000022206213548FDF778F80020ADF82800A2
:10351000ADF822000995A0B2ADF8200008A9304806
:10352000FDF77FFC012211462D48FEF71BF96020B4
:10353000ADF800000120ADF802000020ADF80C004D
:1035400069462748FDF702FD08212548FDF78BFE57
:1035500001212348FDF7D0FC01212148FDF7EAFCB9
:103560001D208DF81C0001208DF81F008DF81D0016
:1035700002208DF81E0007A8FCF7C3FE0BB030BD7B
:1035800010B501211648FEF704F9012820D115488D
:10359000007818B901201349087019E01248007822
:1035A000022802D0FFF7BFFE12E0FFF7AEFD0F4882
:1035B0000068401C0D4908600D480068401C0C491B
:1035C000086008460068B0F5167F01D30020086047
:1035D00001210348FEF7EEF810BD00000000024094
:1035E000000400408E0000208C0000208400002099
:1035F0008800002008B5FFF74BFF4FF4A060FCF7F0
:103600007BFE00F0F3F900F0B1FB012000F0E7FED3
:103610000020032306220521009000F0D9F8532151
:1036200042F20F70FFF74EFF01F048FB08BD0000AB
:103630002DE9F0418AB004460D4616461F46DDF8D6
:10364000408001210846FDF7EBF901214806FDF70E
:1036500030FA4FF4C050089002208DF8240000206A
:103660008DF8260003208DF8250001208DF8270015
:1036700008A95448FCF736FF09220B215148FCF7F2
:10368000BCFF09220C214F48FCF7B7FF00208DF842
:103690001A008DF81B008DF81C0001208DF81D000C
:1036A00000208DF81E008DF81F008DF816808DF813
:1036B00017408DF818608DF81950ADF8147005A9F1
:1036C0004148FEF7CCFC00208DF80E008DF80F006D
:1036D00001208DF810000020ADF80400ADF80600C0
:1036E000ADF80800ADF80A00ADF80C0001208DF827
:1036F000110001A8FEF73DFD012202213248FFF72B
:1037000037F814208DF8000001208DF8010000200A
:103710008DF8020001208DF803006846FCF7F1FDEA
:103720000AB0BDE8F08100B585B06A4600212648A0
:10373000FEF703FF25490098086008460068B0F5C9
:10374000007F0AD908460068B0F5017F05D8084611
:1037500001680DF10B0000F00EFC02211A48FFF782
:103760000AF905B000BDF0B585B007460D46002446
:103770004FF400700090002001908DF808008DF843
:1037800009008DF80A5000BF05E0395D0DF10B000E
:103790000155601C84B2AC42F7DB69460A48FEF76B
:1037A000D7FD0646002401E0601C84B2314606487D
:1037B000FEF766FE18B940F6FF708442F4DB05B0F0
:1037C000F0BD0000000002400064004090000020B6
:1037D0002DE9F0418AB004460D4616461F46DDF835
:1037E000408001210220FDF71BF901214806FDF769
:1037F00060F901218806FDF75CF96020089002203D
:103800008DF8240000208DF8260002208DF8250078
:1038100001208DF8270008A97048FCF763FE0922F3
:1038200005216E48FCF7E9FE092206216B48FCF7EA
:10383000E4FE00208DF81A008DF81B008DF81C00A6
:1038400001208DF81D0000208DF81E008DF81F004E
:103850008DF816808DF817408DF818608DF8195086
:10386000ADF8147005A95E48FEF7F9FB0E208DF83F
:103870000E0000208DF80F0001208DF810000020B0
:10388000ADF80400ADF80600ADF80800ADF80A0088
:10389000ADF80C0001208DF8110001A8FEF769FCBD
:1038A000012202214E48FEF763FF40208DF8000000
:1038B00001208DF801008DF802008DF803006846A4
:1038C000FCF71FFD0AB0BDE8F08100B585B04549A1
:1038D000009808606A4600214148FEF72EFE4149E3
:1038E0000098086008460068B0F5007F14D90846C3
:1038F000006840F2052188420ED83A4801680DF16F
:103900000B0000F04BFA37490968A1F20121364A51
:1039100002EB4100FFF73DFC02213148FFF72BF895
:1039200005B000BDF0B585B007460D4600244FF444
:1039300000700090002001908DF808008DF80900BB
:103940008DF80A5000BF05E0395D0DF10B000155FF
:10395000601C84B2AC42F7DB69462148FEF7F8FCF4
:103960000646002401E0601C84B231461C48FEF784
:1039700087FD18B940F6FF708442F4DB05B0F0BD56
:10398000F0B585B007460D46002440F2FF100090C8
:10399000002001908DF808008DF809008DF80A507C
:1039A00000BF05E0395D0DF10B000155601C84B2CC
:1039B000AC42F7DB69460A48FEF7CAFC064600241B
:1039C00001E0601C84B231460548FEF759FD18B984
:1039D00040F6FF708442F4DB05B0F0BD0004024005
:1039E0000068004090000020540000201CB5012118
:1039F0000220FDF715F80120009000208DF804004A
:103A000003208DF8050002208DF807006946024862
:103A1000FCF768FD1CBD00000004024010B596B024
:103A2000044601210420FCF7FBFF01218804FDF777
:103A300040F807220B21C248FCF7DFFD07220A21CC
:103A4000BF48FCF7DAFD14A8FCF794FD4FF4406082
:103A5000149002208DF8540001208DF857000220A8
:103A60008DF8550000208DF8560014A9B448FCF7D5
:103A700039FDB448FDF77AFF10A8FEF744F810941A
:103A80000020ADF84400ADF84600ADF848000C2029
:103A9000ADF84A000020ADF84C0010A9A948FDF788
:103AA000CCFF012240F22441A648FEF704F901228E
:103AB0004021A448FEF7F6F801228021A148FEF734
:103AC000F1F801219F48FEF740F827208DF83C00CF
:103AD00001208DF83D0002208DF83E0001208DF878
:103AE0003F000FA8FCF70DFC9748FEF797FF96489C
:103AF0003030FEF793FF01214805FCF791FF4FF0AE
:103B0000006000908F48001D0190904802900020B6
:103B1000039014200490002005904FF480600690DC
:103B20000020079008904FF4807009904FF44030C7
:103B30000A9000200B900C900D900E9069468248E0
:103B4000FFF70EF8002281497F48FFF76AF801214C
:103B50007D48FFF772F801217B48FFF73BF84FF0F3
:103B6000006000907748001D019079480290402045
:103B7000039014200490002005904FF4806006907C
:103B800000200790089009904FF480300A900020A0
:103B90000B9001200C9000200D900E9069466A4811
:103BA0003030FEF7DDFF002167483030FFF712F8B4
:103BB00068496548FFF7E2F8674963483030FFF726
:103BC000DDF80122102160483030FFF790F80E2018
:103BD0008DF83C0001208DF83D0000208DF83E005E
:103BE00001208DF83F000FA8FCF78BFB16B010BD2D
:103BF00010B5594954483030FFF796F878B1564916
:103C000051483030FFF75FF800214F483030FEF761
:103C1000E1FF012240F226614A48FEF74CF810BD50
:103C200010B540F226614748FEF780F840B1002207
:103C300040F226614348FEF73EF8002047490870ED
:103C400040F224413F48FEF771F8A0B33D48008898
:103C50003C48001D00883C48FEF7FFFFB0B900213A
:103C60003948FEF7B7FF142037492839C8624FF4A6
:103C7000002236490F313448FEF7D3FF0121324884
:103C8000FEF7A8FF314800F0F1F914E000212E48BA
:103C9000FEF7A0FF14202C492839C86200222B49C6
:103CA0002948FEF7BEFF01212748FEF793FF27486A
:103CB0000F3000F0DBF910BD70B504460D4600BFB3
:103CC000264800780028FBD10120244908700021F3
:103CD0001D483030FEF77EFF2A4621461C4801F081
:103CE00070F8294618483030FEF795FF0121164834
:103CF0003030FEF76FFF70BD1FB5002000900190BF
:103D000002900390CE208DF8000003208DF8010072
:103D1000134800788DF80200124880798DF803006E
:103D2000114800788DF804000521684600F08AF9F2
:103D30008DF8050006216846FFF7BEFF1FBD000095
:103D40000008024000480040286002408C0100202A
:103D5000AA0100200088001000800018A4000020A4
:103D600038000020A8000020250000201CB50121FB
:103D70000420FCF755FE00208DF80400042000907C
:103D800002208DF8070003208DF8050069460248DF
:103D9000FCF7A8FB1CBD000000080240F0B50022A3
:103DA0004478A1F20123984D05EB03131C8002789F
:103DB000A1F201232C4604EB03131B8843EA0223E0
:103DC000A1F2012405EB04142380A1F201232C4667
:103DD00004EB03131B89002B7ED0A1F2012304EB1B
:103DE00003131C88A1F20123884D55F82330E31AF0
:103DF00013F5805F18DAA1F20123834C04EB03135F
:103E00001B8803F50053A1F2012455F824401C1B24
:103E1000A1F201237C4D05EB03135B681C44A1F266
:103E2000012305EB03135C60A1F20123764C04EB44
:103E300003131C88A1F20123744D55F82330E31AB3
:103E4000B3F5805F18DDA1F201236F4C04EB03137F
:103E50001B88C3F50054A1F2012355F823301C44FC
:103E6000A1F20123684D05EB03135B681C1BA1F253
:103E7000012305EB03135C60A1F20123624C04EB08
:103E800003131C88A1F20123604D55F82330E31A77
:103E900013F5805F26DDA1F201235B4C04EB0313D5
:103EA0001C88A1F2012355F82330E31AB3F5805F93
:103EB00018DAA1F20123544C04EB03131C88A1F27D
:103EC000012355F82330E41AA1F201234E4D05EBEE
:103ED00003135B681C4400E004E0A1F2012305EB3E
:103EE00003135C60C478A1F20123474D05EB031373
:103EF0001C818278A1F201232C4604EB03131B8959
:103F000043EA02231CB2A1F2012305EB03131C8137
:103F10004479A1F2012305EB03135C810279A1F23C
:103F200001232C4604EB03135B8943EA02231CB2F2
:103F3000A1F2012305EB03135C818479A1F2012333
:103F400005EB03131C73A1F201232C4604EB0313AE
:103F50001C88A1F201232D4D45F8234040F2022395
:103F6000994207D1A1F20123274C04EB0317284BF8
:103F7000F0CFF0C3F0BD30B500224478A1F20123A8
:103F8000244D05EB03131C800278A1F201232C467B
:103F900004EB03131B8843EA0223A1F2012405EB7F
:103FA00004142380C478A1F2012305EB03131C81C0
:103FB0008278A1F201232C4604EB03131B8943EA08
:103FC00002231CB2A1F2012305EB03131C814479E7
:103FD000A1F2012305EB03135C810279A1F2012315
:103FE0002C4604EB03135B8943EA02231CB2A1F2C3
:103FF000012305EB03135C818479A1F2012305EB16
:1040000003131C7330BD0000DC000020B801002049
:104010006C0100202C01002030B502460B464FF603
:10402000FF7009E012F8011B80EA0104E4B20D4DB3
:1040300035F8144084EA20201C00A3F10105EBB2FE
:10404000F0D130BD30B50246002005E012F8014B3A
:1040500084EA0003044CE05C0C00A1F10105A9B264
:10406000F4D130BD4A5F00084A61000870B50546CA
:10407000002400E0641C285DA52801D0082CF9DD8F
:1040800004F10900285CB449087028190921FFF7D8
:10409000D9FFB249087008460078AF4909788842CC
:1040A00021D1A01C285CAE498871201D295CE01C30
:1040B000285C41EA002000B2A9490880A01D295CC3
:1040C000601D285C41EA002000B2A549488004F147
:1040D0000800295CE01D285C41EA002000B2A049EC
:1040E00088800C3400E00C3470BD30B52DED108BA1
:1040F00083B0002400259B48006858B99A4800689E
:1041000040B99A48006828B9FEF7BBFE03B0BDEC81
:10411000108B30BD9548006840B395480068C0EBEF
:10412000001000EB400591480068924908608F48F4
:104130000068404248608D480068404288608B4873
:104140000068C8608C48006828448C4908608A4828
:104150004068401B486088488068284488608648DA
:10416000C068401BC860FEF7DDFECFE77E480068F0
:1041700090B17C48006878B97B4800687D49086048
:10418000794800684042486077480068404288604B
:1041900075480068C86000257248006858B37248C6
:1041A000006840BB724800685A2100FB01F56D4869
:1041B000006800280FDD6B4800686E490860694898
:1041C000006840424860674800684042886065482F
:1041D0000068C8600FE06D4262480068404265496F
:1041E00008606048006848605E48006888605D4814
:1041F00000684042C8605B480068002877D05A4891
:1042000000680028FAD0574909684943564A12689D
:10421000554B1B6802FB031001F035FB41EC190BF9
:10422000B0EE490AF0EE690A01F00EF8B0EE408AED
:10423000F0EE608A51EC180B01F0F6FA04464C4897
:10424000006801F037FB41EC190B4748006801F0AA
:104250001AFB41EC1E0B4348006801F014FB41ECD3
:104260001F0B9FED470B53EC102B01F073FB53EC2E
:104270001E2BCDE900019DED000B51EC100B01F060
:104280007BF941EC1D0BB0EE4D0AF0EE6D0A00F02B
:104290006BFEB0EE40CAF0EE60CA9FED3B0B53ECF4
:1042A000102B51EC1C0B01F055FB41EC1B0B9FED4F
:1042B000380B53EC102B01F05FF941EC1A0B53EC67
:1042C000192B01F047FB41EC180B01F0ADFA054644
:1042D000002D16DD23480068002809DD254804600C
:1042E000604224494860604288600846C4601EE01D
:1042F0006042204908600846446084606042C860AB
:1043000015E018480068002808DD60421949086077
:104310000846446084606042C86008E01548046054
:10432000604214494860604288600846C460124890
:1043300000682844114908600F48406828444860D4
:104340000D488068284488600B48C0682844C860CD
:10435000FEF7E8FD00BFD9E6B1000020B000002064
:10436000A8000020B8000020B4000020BC000020FD
:1043700080000020C00000207C0100206C04002090
:10438000000000000000F03F0000000000806640D8
:1043900090694254FB21094080ED000AC0ED010AFA
:1043A00080ED021AC0ED051A80ED0B3A80ED062A69
:1043B000C0ED082ADFEDFE3AC0ED033ADFEDFC3A2E
:1043C000C0ED043ADFEDFA3AC0ED073ADFEDF83A16
:1043D000C0ED093ADFEDF63AC0ED0A3A704700B594
:1043E000014601297BD1F3480068400800EE100A1D
:1043F000B8EE400AB0EE403ADFEDEF2A9FEDEC2A2E
:10440000DFEDED1AB6EE001AF6EE000AB2EE0E0A75
:10441000EA48FFF7C1FFE74800680322B0FBF2F06B
:1044200000EE100AB8EE400AB0EE404AB0EE443A50
:10443000DFEDE12A9FEDDE2ADFEDDF1AB6EE001A8E
:10444000F6EE000AB3EE090ADC486030FFF7A4FF7D
:10445000D8480068400800EE100AB8EE400AB0EEF6
:10446000403ADFEDD52A9FEDD22ADFEDD31AB6EE22
:10447000001AF6EE000AB3EE090AD048C030FFF782
:104480008BFFCC4890ED000AB8EE403ADFEDCA2A27
:104490009FEDC72ADFEDC81AB6EE001AF6EE000A45
:1044A000B3EE090AC648FFF777FF9FEDC13ADFED8B
:1044B000C22A9FEDBF2ADFEDC01A9FEDBD1ADFEDC6
:1044C000BC0A9FEDBB0ABF48FFF766FF9FEDB83AF5
:1044D000DFEDB92A9FEDB62ADFEDB71A00E02EE036
:1044E0009FEDB31ADFEDB20A9FEDB10AB548303047
:1044F000FFF752FF9FEDAE3ADFEDAF2A9FEDAC2AFA
:10450000DFEDAD1A9FEDAA1ADFEDA90A9FEDA80A0B
:10451000AC486030FFF740FF9FEDA53ADFEDA62ADB
:104520009FEDA32ADFEDA41A9FEDA11ADFEDA00AEB
:104530009FED9F0AA3489030FFF72EFFF8E09D48BB
:1045400090ED000AB8EE403ADFED9B2A9FED982AE5
:10455000DFED991A9FED961ADFED9B0A9FED9B0AFE
:1045600096483038FFF718FF924890ED000AB8EEF1
:10457000403ADFED912A9FED8E2ADFED8F1A9FEDF5
:104580008C1ADFED8B0AB2EE040A8C48FFF704FFA9
:10459000884890ED000AB8EE403ADFED872A9FED9B
:1045A000842ADFED851A9FED821ADFED870A9FEDE1
:1045B000870A82483030FFF7EFFE7E4890ED000A10
:1045C000B8EE403ADFED7C2A9FED792ADFED7A1ACA
:1045D0009FED771ADFED760AB2EE040A7748603075
:1045E000FFF7DAFE734890ED000AB8EE403ADFEDCF
:1045F000722A9FED6F2ADFED701A9FED6D1ADFEDC5
:10460000720A9FED720A6D489030FFF7C5FE694847
:1046100090ED000AB8EE403ADFED672A9FED642A7C
:10462000DFED651A9FED621ADFED610AB2EE040A52
:1046300063486038FFF7B0FE5E4890ED000AB8EEC0
:10464000403ADFED5D2A9FED5A2ADFED5B1A9FEDC0
:10465000581ADFED5D0A9FED5D0A59483038FFF7C3
:104660009BFE544890ED000AB8EE403ADFED522A26
:104670009FED4F2ADFED501A9FED4D1ADFED4C0AEA
:10468000B2EE040A4E48FFF787FE4A4890ED000A52
:10469000B8EE403ADFED482A9FED452ADFED4C1A8F
:1046A000B6EE001AF6EE000AB2EE0E0A4548FFF723
:1046B00073FE404890ED000AB8EE403ADFED3E2A26
:1046C0009FED3B2ADFED421AB6EE001AF6EE000A25
:1046D000B2EE0E0A3B483030FFF75EFE354890EDF3
:1046E000000AB8EE403ADFED342A9FED312ADFEDC3
:1046F000381AB6EE001AF6EE000AB2EE0E0A31488B
:104700006030FFF749FE2B4890ED000AB8EE403AC2
:10471000DFED292A9FED262ADFED2D1AB6EE001ACD
:10472000F6EE000AB2EE0E0A26489030FFF734FE8D
:1047300000BD10B530EEC01A80ED031A90ED031ADB
:10474000D0ED051AB4EEE11AF1EE10FA03DD90EDAA
:10475000051A80ED031A90ED031AD0ED051AF1EE5B
:10476000611AB4EEE11AF1EE10FA05D290ED051AD5
:10477000B1EE411A80ED031A90ED071AD0ED031A3D
:1047800031EE211A80ED071A90ED071AD0ED081AC4
:10479000B4EEE11AF1EE10FA03DD90ED081A80EDA7
:1047A000071A90ED071AD0ED081AF1EE611A11E020
:1047B00000000000D800002000409C45FC010020C3
:1047C0001C0300204C030020CDCC4C3D52B89E3E33
:1047D00000E0AB45B4EEE11AF1EE10FA05D290ED2F
:1047E000081AB1EE411A80ED071A90ED031AD0EDC8
:1047F000041A31EE611A80ED091A90ED031A80ED6A
:10480000041A90ED001AD0ED031A21EE211AD0ED12
:10481000011A90ED072A01EE821AD0ED021A90EDEE
:10482000092A01EE821A80ED0A1A90ED0A1AD0EDDB
:104830000B1AB4EEE11AF1EE10FA03DD90ED0B1A4B
:1048400080ED0A1A90ED0A1AD0ED0B1AF1EE611AFA
:10485000B4EEE11AF1EE10FA05D290ED0B1AB1EEBA
:10486000411A80ED0A1A90ED0A1ABDEEC11A11EE36
:10487000103A1BB21B1202F8113090ED0A1ABDEE6D
:10488000C11A11EE103A5BB2012404EB4104135536
:1048900010BD30EEC01A80ED031A90ED031AD0ED72
:1048A000051AB4EEE11AF1EE10FA03DD90ED051AE7
:1048B00080ED031A90ED031AD0ED051AF1EE611A9E
:1048C000B4EEE11AF1EE10FA05D290ED051AB1EE50
:1048D000411A80ED031A90ED071AD0ED031A31EE5C
:1048E000211A80ED071A90ED071AD0ED081AB4EEE0
:1048F000E11AF1EE10FA03DD90ED081A80ED071AC7
:1049000090ED071AD0ED081AF1EE611AB4EEE11A33
:10491000F1EE10FA05D290ED081AB1EE411A80EDD1
:10492000071A90ED031AD0ED041A31EE611A80EDEA
:10493000091A90ED031A80ED041A90ED001AD0EDDB
:10494000031A21EE211AD0ED011A90ED072A01EE8B
:10495000821AD0ED021A90ED092A01EE821A80ED3A
:104960000A1A90ED0A1AD0ED0B1AB4EEE11AF1EE24
:1049700010FA03DD90ED0B1A80ED0A1A90ED0A1A79
:10498000D0ED0B1AF1EE611AB4EEE11AF1EE10FA65
:1049900005D290ED0B1AB1EE411A80ED0A1AF749D3
:1049A00091ED0A1AD0ED0A1A31EE211A81ED0A1A98
:1049B00091ED221AD0ED0A1A31EE211A81ED221A58
:1049C00091ED3A1AD0ED0A1A31EE211A81ED3A1A18
:1049D00091ED521AD0ED0A1A31EE211A81ED521AD8
:1049E000704710B5E64890ED001AB8EEC11AF0EE27
:1049F000410AE44890ED011AB8EEC11AB0EE410A3E
:104A0000E14A0021DD48FFF794FEDD4890ED011AF0
:104A1000B8EEC11AF0EE410ADA4890ED051AB8EE88
:104A2000C11AB0EE410AD84A0121D4486030FFF7DC
:104A300080FED34890ED021AB8EEC11AF0EE410A9A
:104A4000D04890ED091AB8EEC11AB0EE410ACE4A2C
:104A50000221CA48C030FFF76CFEC94890ED031A26
:104A6000B8EEC11AF0EE410AC64890ED0D1AB8EE44
:104A7000C11AB0EE410AC44A0321C448FFF759FEE7
:104A8000BF484068C2490860BC4890ED0A1AF0EE81
:104A9000410ABC48B0F9080001EE100AB8EEC11A8C
:104AA000B0EE410AB84A0021B4483030FFF741FE69
:104AB000B24890ED221AF0EE410AB248B0F918005F
:104AC00001EE100AB8EEC11AB0EE410AAE4A012159
:104AD000AA489030FFF72DFEA84890ED3A1AF0EE64
:104AE000410AA848B0F9280001EE100AB8EEC11A30
:104AF000B0EE410AA44A0221A4483038FFF719FE5B
:104B00009E4890ED521AF0EE410A9E48B0F93800E6
:104B100001EE100AB8EEC11AB0EE410A9A4A03211A
:104B20009A483030FFF705FE08219748FEF7FAFE55
:104B3000984890ED001AB8EEC11AF0EE410A964876
:104B4000B0F9080001EE100AB8EEC11AB0EE410A41
:104B5000924A00219248FFF7ECFD8E4890ED011A31
:104B6000B8EEC11AF0EE410A8B48B0F9180001EE18
:104B7000100AB8EEC11AB0EE410A884A01218848ED
:104B80003030FFF7D6FD834890ED021AB8EEC11A17
:104B9000F0EE410A8048B0F9280001EE100AB8EEA4
:104BA000C11AB0EE410A7D4A02217D486030FFF70C
:104BB000C0FD784890ED031AB8EEC11AF0EE410A34
:104BC0007548B0F9380001EE100AB8EEC11AB0EE1F
:104BD000410A724A032172489030FFF7AAFD08216A
:104BE0006E48FEF7C0FD10BD10B56A4890ED001A82
:104BF000B8EEC11AF0EE410A6248B0F9080001EEC1
:104C0000100AB8EEC11AB0EE410A5F4A00215B48B3
:104C10003030FFF78EFD5F4890ED011AB8EEC11AF3
:104C2000F0EE410A5748B0F9180001EE100AB8EE4C
:104C3000C11AB0EE410A544A012150489030FFF7A2
:104C400078FD544890ED021AB8EEC11AF0EE410A10
:104C50004C48B0F9280001EE100AB8EEC11AB0EEC7
:104C6000410A494A022149483038FFF762FD494864
:104C700090ED031AB8EEC11AF0EE410A4148B0F9BE
:104C8000380001EE100AB8EEC11AB0EE410A3E4AF1
:104C900003213E483030FFF74CFD08213A48FEF72B
:104CA00041FE0020FEF7D4FB0120FEF7D1FB0220DD
:104CB000FEF7CEFB0320FEF7CBFB10BD00B5394855
:104CC000006800F6B83000EE100AB8EE403ADFEDAA
:104CD000362A9FED362ADFED341A9FED341ADFEDC8
:104CE000340A9FED340A3448FFF756FB2D4800681C
:104CF00000F6B83000EE100AB8EE403ADFED2A2A8E
:104D00009FED2A2ADFED281A9FED281ADFED270AEA
:104D1000B2EE040A28483030FFF73EFB00BD1CB558
:104D20000020009001901748D0ED110AF8EEE00A3B
:104D3000B0EE600A6A4600212048D0ED000AF8EE85
:104D4000E00A1D48FFF7F5FC1B4890ED0A1AF0EE4B
:104D5000410A0C48B0F9480001EE100AB8EEC11A39
:104D6000B0EE410A6A46002113483030FFF7E1FCFB
:104D700008216846FEF704FE1CBD0000CC0100209F
:104D80006C040020DC0000209C000020EC020020CD
:104D9000D0000020C00000202C0100209400002042
:104DA0004C030020D800002000409C45000000007B
:104DB0006F12833A3D0A573E0C040020D4000020B5
:104DC0007047032A40F2308010F0030C00F0158089
:104DD00011F8013BBCF1020F624498BF11F801CBFE
:104DE00000F8013B38BF11F8013BA2F1040298BF63
:104DF00000F801CB38BF00F8013B11F0030300F0CD
:104E00003480083AC0F0088051F8043B083A51F861
:104E100004CBA0E80810F5E7121D5CBF51F8043B75
:104E200040F8043BAFF30080D20724BF11F8013BE8
:104E300011F801CB48BF11F8012B24BF00F8013B4A
:104E400000F801CB48BF00F8012B7047704770474E
:104E50007047704710B500F03BF8006810BD10B502
:104E6000044600F035F8046010BD10B5203AC0F0DB
:104E70000B80B1E81850203AA0E81850B1E818505B
:104E8000A0E81850BFF4F5AF5FEA027C24BFB1E898
:104E90001850A0E8185044BF18C918C0BDE8104009
:104EA0005FEA827C24BF51F8043B40F8043B08BF12
:104EB0007047D20728BF31F8023B48BF11F8012BD9
:104EC00028BF20F8023B48BF00F8012B70470000C4
:104ED000004870477C040020004870477C04002094
:104EE0007546FFF7F9FFAE4605006946534620F0C8
:104EF0000700854618B020B5FCF770FFBDE82040DC
:104F00004FF000064FF000074FF000084FF0000B85
:104F100021F00701AC46ACE8C009ACE8C009ACE838
:104F2000C009ACE8C0098D4670470446AFF3008065
:104F30002046FBF772F903B401984100009850EA4B
:104F4000C12018BF04204A0D18BF40F0010040F2F4
:104F5000FF72B2EB515F08BF40F00200012808BFAA
:104F6000052002B07047000070B59D482DED020B82
:104F70002DED068B079D25F00044A0421DDC9948CD
:104F8000844202DC0FD1069868B19DED060B53EC0C
:104F9000102B51EC100B00F03BFABDEC068B02B06D
:104FA00041EC100B70BD002DCCBF9FED8F0B9FED22
:104FB000900BBDEC068B02B070BD8F48A04215DD92
:104FC0008E48A042D8BF4FF0FF3458DD9DED060B50
:104FD00051EC100BFFF7AFFF042808BF00F0F0F909
:104FE0009DED060BBDEC068B02B070BD9DED060B72
:104FF00051EC100B00F0F4F9CDE9060180489FED6B
:10500000828BA0423CDD8248A0421FDD00249FED40
:1050100082AB9DED060B53EC1A2B51EC100B00F0FC
:10502000F7F99DED060B41EC190B53EC1A2B51ECE3
:10503000100B00F08FFC53EC182B00F097FE53EC94
:10504000192B00F099FACDE9060149E09DED060B18
:10505000012453EC182B51EC100B00F0D9F99DED05
:10506000060B41EC190B53EC182B51EC100B00F014
:105070007DFE53EC192B00F07FFACDE906012FE0FD
:105080006748A0421FDD02249FED679B9DED060B44
:1050900053EC192B51EC100B00F05CFC53EC182B6B
:1050A00000F0B6F99DED060B41EC180B53EC192BF3
:1050B00051EC100B00F05AFE53EC182B00F05CFA88
:1050C000CDE906010CE09DED060B032453EC102BFB
:1050D0009FED570B51EC100B00F04EFACDE9060195
:1050E0009DED060B53EC102B51EC100B00F032FC35
:1050F00041EC180B53EC182B00F02CFC41EC190B75
:105100004D480621B0EE490AF0EE690A784400F0F5
:10511000D8F853EC182B51EC100B00F01BFC41ECB1
:10512000180B4648B0EE490AF0EE690A05217844AA
:1051300000F0C7F853EC192B51EC100B00F00AFCEF
:1051400041EC100B51EC180B53EC102B002C0EDA29
:1051500000F05EF99DED061B53EC112B00F0FAFBFD
:105160009DED061B53EC112B00F028FD35E000F0FF
:105170004FF99DED061B53EC112B00F0EBFB41ECBE
:10518000100B2F48784400EBC40090ED001B51EC4D
:10519000100B53EC112B00F0E9FD9DED061B53ECB9
:1051A000112B00F0E3FD41EC100B2648784400EB96
:1051B000C40090ED001B51EC100B53EC112B00F0D0
:1051C000FDFC41EC100B002DA2BFBDEC068B02B024
:1051D00070BD51EC100B00F00FF941EC100B01E722
:1051E000000010440000F07F182D4454FB21F93FCB
:1051F000182D4454FB21F9BF0000DC3F0000203E85
:105200000000F33F00000000000000000000F03F3D
:105210000000E63F00000000000000000000004029
:105220000080034000000000000000000000F83F84
:10523000000000000000F0BFA81100005E11000097
:10524000E8100000A010000000B52DED048BB0EEBA
:10525000409AF0EE609A83B051EC190B00F0BAFC62
:1052600041EC180B18EE100A18EE901A8DED008B19
:10527000002818BF0120084320F00040C0F17F60E3
:1052800000F1E040C00F14D019EE101A19EE900A88
:105290008DED009B002918BF0121084320F000403C
:1052A000C0F17F6000F1E040C00F04BF0120FFF7B4
:1052B000D6FDB0EE480A03B0F0EE680ABDEC048BF0
:1052C00000BD70B504462DED028B4D1E00EBC500F0
:1052D000B0EE408AF0EE608A90ED000B35F00600EB
:1052E00017D053EC182B51EC100B00F033FB41ECB2
:1052F000100B6D1E04EBC50090ED001B51EC100B64
:1053000053EC112B00F084F841EC100B35F0060043
:10531000E7D1022D36D0042D1CD0062D1CBFBDECCC
:10532000028B70BD53EC182B51EC100B00F012FBEC
:1053300094ED0A1B53EC112B00F06AF853EC182B78
:1053400000F008FB94ED081B53EC112B00F060F803
:1053500041EC100B53EC182B51EC100B00F0FAFA47
:1053600094ED061B53EC112B00F052F853EC182B64
:1053700000F0F0FA94ED040B53EC102B00F048F819
:1053800041EC100B53EC182B51EC100B00F0E2FA2F
:1053900094ED021B53EC112B00F03AF853EC182B50
:1053A00000F0D8FA94ED001B53EC112B00F030F80C
:1053B000BDEC028B41EC100B70BD00000000000042
:1053C0009FED050B10B553EC102B51EC100B00F0BA
:1053D000C1FA41EC100B10BD0000000000000010ED
:1053E00082B0CDE9000121F0004001909DED000B5D
:1053F00002B051EC100B704781F00041704780F013
:105400000040704721F00041704720F00040704795
:1054100010B591EA030F48BF83F0004300F1AE845A
:10542000841A71EB030C05D2121943EB0C03001B19
:1054300061EB0C01DFF824E14FEA1154A4EB135C9B
:105440001EEA430F18BF9EEA445F73D023EA0E039F
:10545000DCF1200E21EA045143F4801332D322FA06
:105460000CFE10EB0E0023FA0CFE41EB0E01CCF10A
:10547000200E03FA0EFE10EB0E0051F10001B1F503
:10548000801FCCF1200E32D201EB045112FA0EF241
:10549000BDE8104058BF7047401C38BF5FEA420269
:1054A00018BF7047002814BF20F0010041F100012F
:1054B0004FEA410313F5001F38BF7047A1F1C04107
:1054C00000F040BB012A43EB0302ACF1200CDCF1FD
:1054D0001F0E32BF4FF0000E23FA0CF310EB030047
:1054E00041EB0451B4EB115FD0D0A1EB045101F5B5
:1054F000801149085FEA300001EB04510ED350F1EE
:10550000000038BF12FA0EFE08D1BDE81040C9E70E
:10551000401C38BF5FEA4202CAD1C3E7BDE8104071
:105520004FEA410313F5001F38BF7047A1F1C04196
:1055300000F008BB9EEA445F08D011EA5E0FBDE8A8
:10554000104004BF01F0004100207047BDE810404A
:1055500070B500F0A9FA00BF64FBBE3E0000E0FF9A
:10556000491058BFC1F140415B1058BFC3F14043DF
:105570008B42EFF3008070472DE9C04130B4DFF873
:10558000A0C23CEA111418BF3CEA131400F0EC80EE
:1055900081EA03051CEA111444EAD57418BF1CEA19
:1055A000131500F0C780A4EB05044FF0004545EA51
:1055B000C12145EAC32341EA505143EA525304F161
:1055C0007F74994204F500344FEAC0204FEAC222AA
:1055D00008BF904200F09C804FEA13650FF240161E
:1055E000765D4FEA134506FB05F7C7F1807706FBAA
:1055F00007F74FEAD737A7FB03687642C8F580382C
:10560000A7FB06CE38BFA8F1010807FB08E64FF05C
:10561000000EA6FB028CE6FB03CEDCF1000CCEF103
:10562000004E38BFAEF1010EA6FB0C584FF000073C
:105630004FF00005E6FB0E87A1FB08C6A0FB07CED6
:1056400016EB0E0645F10005E1FB076515F1E04E8E
:105650007EBFA4F580345FEA46066D4116F18007EF
:1056600045F100054FEA17274FEA066647EA056746
:10567000A6F1DE46B6F1805F4FEA15251FD9384600
:1056800024F0010C05EBC471BCF1FE6F01EB0C11B1
:1056900002D8F0BCBDE8008124425CBF01F5801E49
:1056A0009EEAC47F02D4F0BCBDE80081244238D415
:1056B000F0BCA1F1C041BDE8004100F043BA4FEA9F
:1056C000D22242EA43524FEAD323A7FB02864FEA93
:1056D000D02040EA415007FB03661EEA0E0F4FEA56
:1056E000D12105FB026658BFA6EB0056B6EB00566B
:1056F0004FEA520E4EEAC37E18EB0E0E56EB530ED7
:10570000BDD518EB02085E417F1C55F10005B6E7D8
:105710004FF480154FF000074FF000064FF00008DF
:10572000ADE7F0BC4FF0000001F1C04101F00041D5
:10573000BDE8008111EA0C1F0CEA131500D00CE043
:1057400013EA0C1F00F025804FF00000F0BC81EA46
:10575000030101F00041BDE80081F0BC81EA0301D2
:10576000BDE8004100F0EEB9F0BCBDE8004170B505
:1057700000F09AF9097EFC3E00F007B881EA0301C7
:105780004FF0000001F00041704781EA030100F092
:10579000D9B9F0BC4FF000002249BDE80041704784
:1057A000FFFDFBF9F7F5F4F2F0EEEDEBE9E8E6E4E6
:1057B000E3E1E0DEDDDBDAD8D7D5D4D3D1D0CFCD6D
:1057C000CCCBCAC8C7C6C5C4C2C1C0BFBEBDBCBBA6
:1057D000BAB9B8B7B6B5B4B3B2B1B0AFAEADACABA1
:1057E000AAA9A8A8A7A6A5A4A3A3A2A1A09F9F9E7B
:1057F0009D9C9C9B9A99999897979695959493932D
:10580000929191908F8F8E8E8D8C8C8B8B8A8989C3
:105810008888878786858584848383828281818046
:105820000000FF070000F87F4FEA41034FEA53539F
:10583000A3F58063D3F11E03C8BFD3F1210C0CDDA7
:105840004FF0004242EAC12242EA505232FA03FCCF
:105850008CEAE17CACEBE1707047102BC4BF0020F8
:10586000704703F5787CBCF1FF3F04D06FF0004235
:1058700082EA2100704770B500F016F94992248041
:1058800000207047F2E710F0004248BF4042B0FAF3
:1058900080F310FA03F10AD0C3F11D0303F580630E
:1058A0004FEA415002EB035202EBD12170474FF017
:1058B00000007047B0FA80F310FA03F10AD0C3F188
:1058C0001D0303F580634FEA41504FEA035202EB98
:1058D000D12170474FF000007047000051EA030CDF
:1058E00017D41CF5801F58BFBCF5801F00F106803F
:1058F000994218BF704708BF9042704707D711F50B
:10590000801F58BF13F5801F19D4994270478942F0
:1059100070471CF5801F08D5BCF5801FF7D58B425A
:1059200018BF704708BF824270474FF4001C1CEB41
:10593000410F38BF1CEB430F01D28B42704770B54B
:1059400000F0B2F8922449004FF000514FF080531C
:10595000FFF706BEDFF848C170B51CEA111E1EBF76
:105960001CEA13159EEA0C0F95EA0C0F00F06F80ED
:1059700081EA030423EA4C134EEAD47E21EA4C1157
:1059800041F4801143F48013AE44A1FB024CA0FB10
:105990000365AEF17F7E361955EB0C05A1FB034C78
:1059A0004CF10003A0FB021C16EB0C06654153F101
:1059B0000003094218BF46F0010613F4007F0BD123
:1059C0004FEA03314FEA0530340341EA155140EA0A
:1059D00016506FF003020AE04FEAC3214FEAC520D8
:1059E000F40241EA555140EA56506FF0020202EBD0
:1059F0002E4201EB025585EACE710AD05FEA440CD3
:105A000018BF24F0004450F1000041F1000120EAE9
:105A1000D47040F2FE7C624500D270BDA84214BF33
:105A20004FF080444FF04044002E08BF0024BEF1E8
:105A3000806FA8BFA1F1C041BDE8704080F28280B4
:105A40004FF0000001F1C04101F0004170479EEAB3
:105A50000C0F0CEA131518BF95EA0C0F06D04FF087
:105A6000000081EA030E0EF0004170BD00F01CF84A
:105A70008900013E00F007B800F009B84FEA430C76
:105A80005FEA5C5C08D081EA030100F05BB84FEA92
:105A9000410C5FEA5C5CF6D14FF0000001497047B1
:105AA0000000FF070000F87F0EF1020E2EF0030E3B
:105AB0005EF8046B364205D4012A43EB030515F565
:105AC000001F12D8012841EB010C1CF5001F0CD857
:105AD0000ED14FEAD17C15F5001F0CEB4C0C0CF1EC
